S1230000BD00FB8E0163BD003AB6FF02813127148132271581532716817327128E01E8BD36
S11D0020003A20DCBD067920D7BD040E20D28E01C9BD003A20004FB7FF0123
S105FFFE0000FD
S123003A3402A6802705B7FF0020F735023900C6308164250A80645C816425035C8064F74F
S123005AFF00C650F700485F58B1004825045CB000481F01B6004844B70048810A1F1024C2
S123007AE7CB30F7FF008B30B7FF00C60AF7FF00391B5B324A001B5B313B3148001B5B3324
S123009A376D001B5B33316D001B5B33326D001B5B33336D001B5B316D001B5B306D00346B
S12300BA108E0097BD003A35103934108E009DBD003A35103934108E00A3BD003A351039AA
S12300DA34108E00A9BD003A35103934108E00AFBD003A35103934108E00B4BD003A35105A
S12300FA398E008BBD003A8E0090BD003A394D4F53434150554C504F47414E534F4C4C41F7
S123011A4D414849454E414C454D5552434552444F4349534E4543415250414341425241AA
S123013A4552495A4F47414C4C4F544947524543454252414F56454A41504552524F504143
S123015A4E44414B4F414C41000A0A2D2D574F52444C452D2D0A3129205645522044494350
S123017A43494F4E4152494F0A3229204A554741520A53292053414C49520A517565206F2A
S123019A7063696F6E20717569657265733F0A000A456C656769737465206C61206F706336
S12301BA696F6E203220284A75676172290A000A456C656769737465206C61206F70636921
S12301DA6F6E2053202853616C6972290A000A4F7063696F6E20696E76616C6964610A0057
S12301FA0A4465206163756572646F2C207075657320656D7069657A6120656C206A7565C2
S123021A676F2E0A000A44696363696F6E6172696F3A200A000A50616C61627261733A2056
S123023A000A20207C204A5545474F207C0A2D2D7C2D2D2D2D2D2D2D7C0A20207C203132C4
S123025A333435207C0A2D2D7C2D2D2D2D2D2D2D7C0A00207C20000A0020000A50414C4199
S123027A4252413A2020000A436172616374657220696E76616C69646F2C20696E74726FF4
S123029A64757A6361206F74726F000A484120626F727261646F20756E61206C657472610D
S12302BA000A4E6F2068617320616365727461646F2E0A50756C73652072207061726120E3
S12302DA766F6C7665722061206A756761723B2050756C7365206375616C71756965722039
S12302FA6F747261206C6574726120706172612073616C697220616C206D656E753A2000D7
S123031A20000A50756C7365206375616C7175696572207465636C61207061726120766FAF
S123033A6C76657220616C206D656E753A20000A46656C69636964616465732C20686173EB
S123035A20616365727461646F206C612070616C616272610A50756C736520722070617234
S123037A6120766F6C7665722061206A756761723B2050756C7365206375616C71756965A9
S123039A72206F747261207465636C6120706172612073616C697220616C206D656E753AD3
S12303BA20002020202020000000000000000000202020202000202020202000202020209F
S12303DA20002020202020002020202020002020202020000020202020202020202020209F
S12303FA20202020202020202020202020202020202020001601CFBD00FB8E023BBD003A1F
S123041A5FBD00B9BD00F0C10627731F988B31B7FF008E026DBD003A8E03CA108E03EF349F
S123043A041F984D270FE681E681E681E6A1E6A1E6A04A20EFBD00E5A6A0E68027298120FF
S123045A27108176271181612715BD00C4F7FF0020E6B7FF0020E1BD00CFF7FF0020D9BD8E
S123047A00DAF7FF0020D13504BD00B9BD00F08E026DBD003A8E0271BD003A5C2083B6049C
S123049A0D8101102701B28102102701BE8E0275BD003A8E03C3BD003AB6FF028E03C3F604
S12304BA03C981721027011E8176102701AF8120102700ED8141102500DD815A102200D7AE
S12304DAA7857C03C9C104270220B38E03CAB603EE2709E681E681E6814A20F5108E03C39F
S12304FAA6A02704A78020F88E03C3108E03BCA6802708A1A0261AA68020F68601B7040D1C
S123051A8676340234023402340234023402160041108E03BC8E03C32738A684A1A4271070
S123053A3420108E03BCA6A0271CA184270C20F686763402A6A0A68020DE866135203402E7
S123055AA6A0A68020D2867235203402A6A0A68020C68E03EFB603EE2709E681E681E680BF
S123057A4A20F535023502A7043502A7033502A7023502A7013502A7848E03C35FE780E7E2
S123059A80E780E780E780F703C97C03EEB603EE8106272116FE608E0281BD003A4A16FE08
S12305BADDB603C91027FED67A03C94A5F8E03C3E78616FEC9B6040D81011027FE398602E7
S12305DAB7040D16FE318E0108B603C22709E681E681E6804A20F57C03C2B603C2811226A6
S12305FA044FB703C2108E03BCA680A7A0A680A7A0A680A7A0A680A7A0A680A7A04FB70387
S123061AC9B7040D8E03C3A780A780A780A780A780B703EE8E03CA8620C606270DA780A79D
S123063A80A780A780A7815A20F18E03EFC620861E2703E7804A16FDBE8E0349BD003AB6FE
S123065AFF0281721027FF7E1600128E02BBBD003AB6FF0281721027FF6C1600003900BD12
S123067A00FB7F06788E021FBD003A8E0108C6065A2709A6802711B7FF0020F47C06788629
S121069A0AB7FF00C60620E88E022FBD003AB60678BD00498E031CBD003AB6FF023926
S9030000FC
